:020000040000FA
:10000000880F00209D010000F57F0000FD7A0000B0
:1000100000000000000000000000000000000000E0
:10002000000000000000000000000000F97F000058
:100030000000000000000000F77F00003DDB000032
:10004000AF010000AF010000AF010000AF010000F0
:10005000AF010000AF010000AF010000AF010000E0
:100060008DDF0000AF010000AF010000AF01000014
:10007000AF010000AF010000AF010000AF010000C0
:10008000ED660000AF010000AF010000AF0100000D
:10009000AF010000AF010000AF010000AF010000A0
:1000A000C5F00000AF010000CDF00000D5F0000069
:1000B000DDF00000AF010000AF010000AF01000063
:1000C00000F002F800F03EF80CA030C80838241800
:1000D0002D18A246671EAB4654465D46AC4201D180
:1000E00000F030F87E460F3E0FCCB6460126334274
:1000F00000D0FB1AA246AB4633431847F801010073
:1001000018020100103A02D378C878C1FAD8520711
:1001100001D330C830C101D504680C6070470000BD
:100120000023002400250026103A01D378C1FBD813
:10013000520700D330C100D50B6070471FB51FBDFB
:1001400010B510BD00F014F91146FFF7F7FF0FF0DE
:10015000D5FE00F02CF903B4FFF7F2FF03BC00F06A
:1001600033F9000070B505460C46164602E00FCC88
:100170000FC5103E102EFAD2082E02D303CC03C5B1
:10018000083E042E07D301CC01C5361F03E02178B9
:100190002970641C6D1C761EF9D270BD074880471B
:1001A00007480047FEE7FEE7FEE7FEE7FEE7FEE75B
:1001B00004480549034A054B7047000085DF0000ED
:1001C000C1000000880B0020880F0020880B002051
:1001D00001E004C0091F0429FBD28B0701D502806E
:1001E000801CC90700D00270704700290BD0C307DC
:1001F00002D00270401C491E022904D3830702D595
:100200000280801C891EE3E70022EEE70022DFE780
:10021000002203098B422CD3030A8B4211D3002303
:100220009C464EE003460B433CD4002243088B42DD
:1002300031D303098B421CD3030A8B4201D394466A
:100240003FE0C3098B4201D3CB01C01A524183095D
:100250008B4201D38B01C01A524143098B4201D317
:100260004B01C01A524103098B4201D30B01C01A42
:100270005241C3088B4201D3CB00C01A52418308BC
:100280008B4201D38B00C01A524143088B4201D3E9
:100290004B00C01A5241411A00D201465241104649
:1002A00070475DE0CA0F00D04942031000D34042BE
:1002B000534000229C4603098B422DD3030A8B42F4
:1002C00012D3FC22890112BA030A8B420CD3890192
:1002D00092118B4208D3890192118B4204D3890178
:1002E0003AD0921100E08909C3098B4201D3CB01B6
:1002F000C01A524183098B4201D38B01C01A52416B
:1003000043098B4201D34B01C01A524103098B426E
:1003100001D30B01C01A5241C3088B4201D3CB0059
:10032000C01A524183088B4201D38B00C01A52413C
:10033000D9D243088B4201D34B00C01A5241411A13
:1003400000D20146634652415B10104601D3404241
:10035000002B00D54942704763465B1000D34042F2
:1003600001B50020C046C04602BD704770477047C7
:10037000754600F025F8AE46050069465346C008AC
:10038000C000854618B020B5FFF712FF60BC0027FB
:100390004908B6460026C0C5C0C5C0C5C0C5C0C551
:1003A000C0C5C0C5C0C5403D49008D46704710B5A9
:1003B0000446C046C0462046FFF7CDFE10BD0000F3
:1003C00000487047280B002001491820ABBEFEE70B
:1003D00026000200704700000146024841610120EA
:1003E0007047000000100040002005494968890757
:1003F000C90F002901D0012000E000207047000053
:1004000000100040164840688006800F032804D181
:10041000134800680005000D7047114840688006C9
:10042000800F022804D10E4800680005800DF3E714
:100430000B4840688006800F012804D108480068F6
:100440000005000EE8E7064840688006800F002897
:1004500004D1034800680005800EDDE70020DBE7DB
:10046000001000403D49096849084900491C3B4AC1
:1004700011601146096804229143091D374A116031
:1004800036494039496830229143027A12013023BB
:100490001A401143314A403A51601146896812149A
:1004A00091432E4A403A916011468968082291434F
:1004B0000278D20008231A401143284A403A91603A
:1004C00011468968C908C90042785207520F114382
:1004D000224A403A916011468968032212029143F0
:1004E0008278120203231B021A4011431B4A403A2E
:1004F00091601146896892149143C27812030123D6
:100500001B031A401143154A403A91601146C968CD
:10051000490949010279D206D20E11430F4A403AE5
:10052000D160114689681F22120491438279120416
:100530001F231B041A401143084A403A9160114698
:10054000896812159143C279920201239B021A40D5
:100550001143024A403A9160704700004010004049
:10056000F3B583B0044604984E30C0B20290A000A8
:100570002749085827490968884201D8002543E0DF
:10058000A000234909582448C06E814201D39B250D
:100590003AE0049D34E0A8001E490E58681C800013
:1005A0000F58A0001A490858B04227D3A000085895
:1005B000B84223D2B7421DD9B81BC0B20190A000E7
:1005C0000858801B00900098C0000090A0000858B8
:1005D000801B410000980818009001990098FFF7CF
:1005E00017FE0E4908550846005D092805DD09205B
:1005F000085502E000200949085504E0681CC5B20E
:1006000002988542C7DB00BF284605B0F0BD000058
:100610008C0400200802002008040020170000209D
:1006200070B50446042C06D1272212011749184838
:10063000FFF798FD05E02722120116491448FFF73D
:1006400091FDA0001449085829281ED3A00008587D
:100650001249884219D8204600F028F8012814D100
:10066000A0000F4909580F48806B814201D34E26E4
:1006700000E0002631462046FFF772FF05460A4893
:10068000005DA84201D00848055570BD007B000000
:10069000080200208078000078040020D70F0000B6
:1006A0008C0400200803002012000020014688006E
:1006B0000E4A1058002807D188000D4A10588A00A9
:1006C0000A4B9850012070478800084A10588A0049
:1006D000074B9A58904207D088001A4610588A0053
:1006E000024B98500120EEE70020ECE78C0400203C
:1006F00078040020074840788006C00F002808D002
:1007000005480179807A814203DD0348807A0249F5
:100710000871704743000020940900200F480078BA
:10072000C009002819D00E4840690E49884204D2F9
:100730000D48407D0C49087103E00B48007D0A49D3
:100740000871064840784007C00F002805D00348CC
:1007500000788021884301490870704743000020D9
:1007600088080020A08C0000940900203F490978E7
:10077000C907C90F002977D03D494979052910D10A
:100780003C490979002908DD3A4909790F2904DC37
:1007900038490A793849885C5AE03749891F087C0A
:1007A00056E033494979042910D132494979002961
:1007B00008DD304949790F2904DC2E494A792E4950
:1007C000885C45E02C49891F087C41E0284949792B
:1007D000032910D127498979002908DD254989791C
:1007E0000F2904DC23498A792349885C30E02249B7
:1007F000891F887B2CE01E494979022918D11F499D
:100800008979012903D11C49891F887B20E0194976
:10081000C979002908DD1749C9790F2904DC154970
:10082000CA791549885C13E01349891F887B0FE05A
:100830001049097A002908DD0E49097A0F2904DCDC
:100840000C490A7A0C49885C02E00B49891F087B35
:100850000949891F0979814207DD002805D0064929
:10086000891F087101E0FFE700BF704743000020C7
:10087000D40900208E0100209A0900208808002059
:1008800038480078C007C00F00286AD13648407841
:10089000C009002865D034480078C007C00F002880
:1008A0003ED0324840781E2816D13148807B00283F
:1008B0000BDD2F48807B102807DA2D48817B2D48DF
:1008C000405C2C49891FC8704BE02A48801F407D3E
:1008D0002849891FC87044E0244840781D2840D129
:1008E0002348C07B00280BDD2148C07B102807DA95
:1008F0001F48C17B1F48405C1E49891FC87005E026
:100900001C48801FC0791B49891FC8701948801F67
:10091000C078192825DD19201649891FC87020E0E4
:10092000114800788007C00F00281AD00F4840787F
:10093000112816D10E48007C00280CDD0C48007CE4
:10094000102808DA0A48017C0A481030405C09493E
:10095000891FC87005E007481030C07B0549891F12
:10096000C8707047D408002043000020700A00209F
:10097000AE0100209A09002010B5E4484078002814
:100980003FD1E248807800283BD1E048C078002879
:1009900037D1DE484079002833D1DC48C0790028BF
:1009A0002FD1DA48007A00282BD1D948807906283F
:1009B00027D10020D5494872D6484078C009002880
:1009C00007D1D5480078C007C00F002801D100F03A
:1009D000F5FAD248C078D14908710020CB49886126
:1009E000FFF79CFEFFF7C2FE00F0B4FD00F002FD31
:1009F00000F0B2FAFFF744FFFFF77CFE01F0EEF8DB
:100A000083E1C2484078042817D0C0488078042881
:100A100013D0BE48C07804280FD0BC4840790428C1
:100A20000BD0BA48C079042807D0B848007A042807
:100A300003D0B7488079022827D1B448407A0028EB
:100A400007D0B248407A012803D0B048407A022843
:100A500006D1B2484078B149C8700846C0780871DC
:100A6000AA488069401CA9498861642809D30020EC
:100A70008861AA48C078401EA849C8700846C07856
:100A800008710420A14948723FE1A048407803283A
:100A900017D09E488078032813D09C48C07803283C
:100AA0000FD09A48407903280BD09848C079032882
:100AB00007D09648007A032803D095488079032808
:100AC00070D19248407A002807D09048407A012897
:100AD00003D08E48407A022806D1904840788F494A
:100AE000C8700846C078087188484078032807D045
:100AF00086488078032803D08448C078032814D11E
:100B000082488069401C814988617D21C9008842F2
:100B100043D300207D4988618048C078401E7F49CA
:100B2000C8700846C078087137E0784840790328D3
:100B300007D07648C079032803D07448007A032888
:100B400014D172488069401C70498861FF21F531D9
:100B5000884222D300206D4988617048C078401EC9
:100B60006E49C8700846C078087116E068488079F8
:100B7000032812D165488069401C6449886168492E
:100B800088420AD30020614988616448C078401EC9
:100B90006249C8700846C078087103205B494872F2
:100BA000B3E0FFE759484078022817D057488078CB
:100BB000022813D05548C07802280FD053484079F6
:100BC00002280BD05148C079022807D04F48007A3C
:100BD000022803D04E488079042813D1FFF79EFDE8
:100BE000FFF7C4FD00F0B6FC00F004FC00F0B4F91F
:100BF000FFF746FEFFF77EFD00F0F0FF02204349BD
:100C0000487282E041484078012817D03F488078F8
:100C1000012813D03D48C07801280FD03B484079C7
:100C200001280BD03948C079012807D03748007A0D
:100C3000012803D036488079052863D133484078AD
:100C400001280BD031488078012807D02F48C07880
:100C5000012803D02E488079052819D12B488069B6
:100C6000401C2A4988612E49884237D300202749F1
:100C700088612A48C0782949897888422EDA27482D
:100C8000C078401C2549C8700846C078087125E026
:100C90001E484079012807D01C48C079012803D09C
:100CA0001A48007A012819D118488069401C174950
:100CB00088617D21C900884210D3002013498861D2
:100CC0001648C07815498978884207DA1348C078F1
:100CD000401C1249C8700846C0780871FFF71EFD15
:100CE000FFF744FD00F036FC00F084FB00F034F91F
:100CF000FFF7C6FDFFF7FEFC00F070FF012003497F
:100D0000487202E005200149487210BDB808002071
:100D1000900A0020430000200C0A002094090020C3
:100D2000B80B000010B585488079012805D18449A9
:100D3000C8790EF01FF9044604E0814948780EF0A6
:100D400019F904467F4800788007C00F00286AD050
:100D50007D480078C007C00F002853D17B48006948
:100D60002330A04203DC0F2079494871BAE077486C
:100D700000691E30A04203DC0E2075494871B1E0C5
:100D8000724800691930A04203DC0C207049487198
:100D9000A8E06E4800691430A04203DC0A206C49C8
:100DA00048719FE0694800690F30A04203DC0820C9
:100DB0006749487196E0654800690A30A04203DC43
:100DC0000720634948718DE060480069401DA042DA
:100DD00003DC05205E49487184E05C480069A0425C
:100DE00003DC00205A4948717CE058480069401FE4
:100DF000A04203DC00205649487173E000205449AA
:100E000048716FE05348407F002808DD5148407F1B
:100E10000F2804DC4F48407F4D49487162E00A20AA
:100E20004B4948715EE047480078C007C00F002872
:100E300058D04648016920462330814203DB0F2009
:100E4000434948714EE04148016920461E308142C5
:100E500003DB0D203E49487144E03C4801692046CF
:100E60001930814203DB0B20394948713AE0374899
:100E7000016920461430814203DB0920344948715E
:100E800030E03248016920460F30814203DB072001
:100E90002F49487126E02D48016920460A308142D9
:100EA00003DB06202A4948711CE028480169601DBF
:100EB000814203DB04202649487113E0234800697E
:100EC000A04203DB0020224948710BE01F48016962
:100ED000601F814203DB00201D49487102E00020B1
:100EE0001B49487117480078C007C00F00280DD073
:100EF00012488079012802D1082015494871144808
:100F00004179801D405C124988700FE00D480078DF
:100F10008007C00F002806D00D4841791630405C8C
:100F20000B49887002E000200949887008488078E1
:100F30000749C8700846C078087110BD88080020AD
:100F4000700A002043000020D40800200C0A002072
:100F5000940900208E01002015480078C007C00FBA
:100F6000002824D1134800784006C00F00281ED066
:100F700010480078C007C00F002809D00E4801793A
:100F8000C079814213DD0C48C0790B4908710EE02D
:100F9000084800788007C00F002808D0064801796B
:100FA000C07D814203DD0448C07D0349087170475C
:100FB000D4080020430000209409002010B5FD480B
:100FC0008079012805D1FC49C8790DF0D3FF04468A
:100FD00004E0F94948780DF0CDFF0446F748C06BAE
:100FE000002878D1F6484078C007C00F00282CD1DF
:100FF000F3480078C007C00F00280BD0F148006903
:10100000A04218DAEE48407840084000401CEC4905
:10101000487010E0EA4800788007C00F00280AD026
:10102000E8480069A04206DDE548407840084000F5
:10103000401CE34948700020DF494861C86188616D
:10104000DE488078DD49C870D1E1DD48407880070E
:10105000C00F002871D1D848C07A0A2811D1D648CB
:1010600040694B21090188420AD30020D2494861D6
:10107000D2480079D149C8700846C078401EC8706F
:10108000BCE0CD48C07A092810D1CB484069CE4990
:101090008842F5D30020C8494861C8480079C7494B
:1010A000C8700846C078401EC870A7E0C248C07A21
:1010B000062811D1C0484069C3498842E0D30020C6
:1010C000BD494861BD480079BC49C8700846C07830
:1010D000401CC87092E049E1B748C07A052811D198
:1010E000B54840694B2109018842C9D30020B24963
:1010F0004861B2480079B149C8700846C078401CC0
:10110000C8707BE0AC48C07A0B2877D1AA494869FF
:101110004B210901FFF77CF8AC4881420ED1A6486B
:101120004069401CA4494861A4480079A349C8709B
:101130000846C078801EC87016E073E09E49486972
:101140004B21C900FFF764F8A14881420CD19A48AD
:101150004069401C98494861984800799749C8708F
:101160000846C078401EC87095480078C007C00F78
:1011700000281ED0904840699649884206D28E4881
:10118000006990490969401A0A2812DB8B480078E7
:1011900040084000894908708A480078C007C00F9D
:1011A000002806D18648407804218843001D8449E0
:1011B0004870834800788007C00F00281ED07E4802
:1011C00040698449884206D27E4800697A490969A3
:1011D000401A0A2812DB7948007840084000774915
:1011E000087078480078C007C00F002806D17448FE
:1011F000407804218843001D714948706E48806919
:10120000754988420DD26C48C07A092809DB002054
:101210006949C8616A48407802218843801C68494E
:1012200048708AE06449C869E121C900FEF7F0FF0F
:101230006A4881420AD100205F49C8615F4800794D
:101240005E49C8700846C078C01EC8705C48007807
:10125000C007C00F00283DD05648807901281CD116
:101260005549C8790DF086FE5649096914318842FE
:1012700052DB5248007840084000504908705148FD
:101280000078C007C00F002846D14D48407804219F
:101290008843001D4A4948703EE0474948780DF0B0
:1012A00069FE484909691431884235DB43480078B2
:1012B000400840004149087042480078C007C00F0C
:1012C000002829D13E48407804218843001D3C492C
:1012D000487021E03A4800788007C00F00281BD0F2
:1012E000354948780DF046FE364909691439884277
:1012F00012DC32480078400840003049087031481C
:101300000078C007C00F002806D12D48407804217E
:101310008843001D2A4948702748C07A01280CDB01
:101320002548C07A072808DC2548407802218843F0
:10133000234948702848204988611F48C07A0128FD
:1013400055DB1D48C07A042851DC1D484078400810
:1013500040001B49487008464078022188431849DC
:101360004870164880781549C87040E014480078E5
:10137000C007C00F00280FD00E488079012804D183
:101380000E48807B0D4988702DE00C484179801D06
:10139000405C0A49887026E0094800788007C00F41
:1013A00000281DD0054841791630405C03498870FB
:1013B00019E0000088080020700A0020940900202D
:1013C000430000200C0A0020B80B0000AF0400000E
:1013D00057020000282300005046000007070000C5
:1013E000002003498870024880780149C87010BD08
:1013F00094090020514909788907C90F002976D03E
:101400004E494978C906C90F002911D14C49C9680C
:10141000FF22C33291420ADD4A49C968002906DB2E
:1014200046494978102291431031444A517083E073
:101430004549497905290FD14449497A002908DDF0
:101440004249497A0F2904DC40494A7A4049885C7C
:1014500051E03F49887A4EE03B49497904290FD150
:101460003A49497A002908DD3849497A0F2904DCCC
:1014700036494A7A3649885C3DE03549887A3AE00F
:1014800031494979032910D13049897A002908DD89
:101490002E49897A0F2904DC2C498A7A2C49885CE8
:1014A00029E02B491639887F25E027494979022907
:1014B00010D12649C97A002908DD2449C97A0F29A3
:1014C00004DC2249CA7A2249885C14E02049163992
:1014D000887F10E01D49097B002909DD1B49097B34
:1014E0000F2905DC19490A7B1949885C03E01DE0D6
:1014F00017491639087F164916390979814204DDE2
:10150000002802D01249163908710D49C968FF2216
:10151000AF32914210DA0B49C9681E290CDD074928
:10152000497810229143054A517005E003494978F2
:1015300010229143014A517070470000430000207F
:10154000200A0020480A0020D40900208E01002033
:10155000AA09002000B5FE4A1278D207D20F002A4D
:1015600079D1FC4A1278D207D20F002A74D0FA4AF5
:101570001279022A0AD1F94A507D102802DAF84A73
:10158000115CB1E0F64A921F117AADE0F24A12798D
:10159000032A0AD1F14A107D102802DAF04A115CC0
:1015A000A2E0EF4A921F117A9EE0EB4A1279042AD8
:1015B0000AD1EA4AD07C102802DAE94A115C93E0A9
:1015C000E74A921F117B8FE0E34A1279052A0AD17C
:1015D000E24A907C102802DAE14A115C84E0E04A99
:1015E000921F917B80E0DC4A1279062A0AD1DB4AFD
:1015F000507C102802DADA4A115C75E0D84A921F52
:10160000117C71E0D44A1279072A0AD1D34A107C9E
:10161000102802DAD24A115C66E0D14A921F917B0F
:1016200062E0CD4A1279082A0AD1CC4AD07B102830
:1016300002DACB4A115C57E0C94A921F117B53E092
:10164000C54A1279092A0CD1C44A907B102804DAC1
:10165000C34A115C48E09DE162E0C14A921FD17A21
:1016600042E0BD4A12790A2A0AD1BC4A507B1028AE
:1016700002DABB4A115C37E0B94A921F917A33E033
:10168000B54A12790B2A0AD1B44A107B102802DA23
:10169000B34A115C28E0B24A921F517A24E0AE4A64
:1016A00012790C2A0AD1AD4AD07A102802DAAC4A53
:1016B000115C19E0AA4A921F117A15E0A64A127924
:1016C0000D2A0AD1A54A907A102802DAA44A115CA0
:1016D0000AE0A34A921F117A06E09F4A12790E2A65
:1016E00002D19F4A921F91799A4A5278D209002AD0
:1016F00015D19C4AD268AA2A11DA994A921F127906
:101700001E2A03DA1E22964B9B1F1A71944A921FBF
:10171000D2781E2AF0DA1E22914B9B1FDA7007E165
:101720008C4A12789207D20F002AF8D08A4A52794E
:101730000F2A0BD1894A907D102803DA884A10328B
:10174000115CE3E0864A1032917ADFE0824A5279F6
:101750000E2A0BD1814AD07D102803DA804A10323C
:10176000115CD3E07E4A1032917ACFE07A4A527906
:101770000D2A0BD1794A107E102803DA784A1032EC
:10178000115CC3E0764A1032917ABFE0724A527916
:101790000C2A0BD1714A507E102803DA704A10329D
:1017A000115CB3E06E4A1032917AAFE06A4A527926
:1017B0000B2A0BD1694A907E102803DA684A10324E
:1017C000115CA3E0664A1032917A9FE0624A527936
:1017D0000A2A0BD1614AD07E102803DA604A1032FF
:1017E000115C93E05E4A1032917A8FE05A4A527946
:1017F000092A0BD1594A107F102803DA584A1032AF
:10180000115C83E0564A1032917A7FE0524A527955
:10181000082A0BD1514A507F102803DA504A10325F
:10182000115C73E04E4A921FD17F6FE04A4A5279B1
:10183000072A0BD1494A907F102803DA484A103210
:10184000115C63E0464A921F917F5FE0424A527901
:10185000062A0BD1414AD07F102803DA404A1032C1
:10186000115C53E03E4A921F917F4FE03A4A527911
:10187000052A0CD1394A20321078102803DA384A68
:101880001032115C42E0364A921F917F3EE0324AAC
:101890005279042A0CD1314A20325078102803DAC8
:1018A0002F4A1032115C31E02D4A921F517F2DE0FA
:1018B000294A5279032A0CD1284A203290781028DC
:1018C00003DA274A1032115C20E0254A921F117F6B
:1018D0001CE0214A5279022A0CD1204A2032D078C9
:1018E000102803DA1E4A1032115C0FE01C4A921FC6
:1018F000D17E0BE0194A2032D078102803DA184A3A
:101900001032115C02E0164A921F917D124A527900
:10191000012A03D0104A5279102A09D1104A921F85
:101920001278520852000E4B9B1F1A7000229A62C6
:10193000084A1278D207D20F002A03D0064A127939
:10194000002A16D1034A12789207D20F002A0BE020
:10195000D408002043000020900A00206E010020DF
:101960009A090020480A002031D0194A5279002AE9
:101970002DD0184A12798A420DDD00290BD0154A64
:101980001171154A127880239A438032124B1A70D3
:1019900000225A701BE0002911D10E4A1278520819
:1019A00052000C4B1A7000229A620B4A1278802364
:1019B0009A438032084B1A7001225A7007E0064A97
:1019C000127880239A43044B1A7000225A7000BD8B
:1019D000900A0020940900208808002000207A4AFC
:1019E0001278D207D20F002A68D0784A1279022AD8
:1019F00002D1774A507D4BE0744A1279032A02D112
:101A0000734A107D44E0714A1279042A02D1704A67
:101A1000D07C3DE06D4A1279052A02D16C4A907C57
:101A200036E06A4A1279062A02D1694A507C2FE0D0
:101A3000664A1279072A02D1654A107C28E0634A77
:101A40001279082A02D1624AD07B21E05F4A1279DA
:101A5000092A02D15E4A907B1AE05C4A12790A2A6E
:101A600002D15B4A507B13E0584A12790B2A02D10B
:101A7000574A107B0CE0554A12790C2A02D1544A7D
:101A8000D07A05E0514A12790D2A01D1504A907A54
:101A900000280DDD10280BDA4E4A115C002903DD09
:101AA00000224D4B5A708DE001224B4B5A7089E059
:101AB0000028F8D10122484B5A7083E0424A12783C
:101AC0009207D20F002A7DD0404A52790F2A02D1C4
:101AD0003F4A907D60E03D4A52790E2A02D13C4A4D
:101AE000907D59E0394A52790D2A02D1384AD07D89
:101AF00052E0364A52790C2A02D1354A107E4BE028
:101B0000324A52790B2A02D1314A507E44E02F4AA0
:101B100052790A2A02D12E4A907E3DE02B4A527910
:101B2000092A02D12A4AD07E36E0284A5279082A68
:101B300002D1274A107F2FE0244A5279072A02D186
:101B4000234A507F28E0214A5279062A02D1204AAE
:101B5000907F21E01D4A5279052A02D11C4AD07F8C
:101B60001AE01A4A5279042A03D1194A203210780D
:101B700012E0164A5279032A03D1154A20325078CE
:101B80000AE0124A5279022A03D1114A203290788F
:101B900002E00F4A2032D07800280EDD10280CDA3F
:101BA0000C4A1032115C002903DD00220A4B5A70E6
:101BB00008E00122084B5A7004E0002802D10122FB
:101BC000054B5A707047000043000020900A002027
:101BD0006E0100209A090020880800200D48007836
:101BE0000007C00F002806D00B48007840084000CE
:101BF000094908700CE0074800784007C00F00282A
:101C000006D005480079282802DD282002490871FD
:101C100070470000980A00209409002010B50DF0CC
:101C2000F9F90DF0E7F9FA48006B002804D0F848FC
:101C3000006B401EF6490863F648007B032803DB6F
:101C4000F448407B042803DAF3484079012808D19E
:101C5000F2480069002804D0F0480069401EEF49AE
:101C60000861EB4800788007C00FED4909788907C3
:101C7000C90F88420BD1EB480078C007C00F00287D
:101C80000ED1E84800788007C00F002808D1E4484A
:101C90004068002804D0E2484068401EE04948609F
:101CA000E1484068002804D0DF484068401EDE4913
:101CB0004860D948007AFF2804DAD748007A401CE7
:101CC000D5490872D448407902287DD1D748406967
:101CD000D749884204D2D5484069401CD34948615D
:101CE000D2488069D249884204D2D0488069401CD9
:101CF000CE498861CD48C069CD49884204D2CB48DD
:101D0000C069401CC949C861CA48C068C8498842FE
:101D100004D2C848C068401CC649C860BF48406A71
:101D2000002804D0BD48406A401EBC494862B848FB
:101D30002030007D002807DDB5482030007D401EA2
:101D4000C1B2B34820300175B64800788007C00F93
:101D5000002843D0B8480078C007C00F00281ED123
:101D6000B5488068B249884204D2B3488068401CB4
:101D7000B1498860B048C068AD49884204D2AE48D5
:101D8000C068401CAC49C860AB480069A84988429B
:101D900024D2A9480069401CA74908611EE0A64852
:101DA0004069A349884204D2A3484069401CA24923
:101DB0004861A14880699E49884204D29E48806952
:101DC000401C9D49886100E076E19B48006A00283C
:101DD00004D09948006A401E9749086291480078EB
:101DE0004006C00F002875D08B488069401C002831
:101DF0002ED089488069401C8749886189480078CD
:101E00008007C00F002811D186480078C006C00F97
:101E100000283CD1834800788007C00F002836D1C5
:101E200080480078C007C00F002830D17A48806908
:101E30008249884275D878488069884209D17B48B0
:101E400040780D286DDD79484078401E774948700C
:101E500067E0714880697A49884209D173484078BF
:101E60000D285EDD71484078401E7049487058E08A
:101E7000694880697349884253D16C4840780D287D
:101E80004FDD6A484078401E6849487049E065481F
:101E90000078C007C00F002805D162480078C0064E
:101EA000C00F00283DD05C4880696549884238D819
:101EB00059488069884218D15748807901280AD149
:101EC0005A48C07920282CDA5848C079401C574914
:101ED000C87126E03CE055484078202821DA534874
:101EE0004078401C514948701BE04B488069554977
:101EF000884216D148488079012809D14B48C079D9
:101F000020280EDA4948C079401C4849C87108E0C9
:101F100046484078202804DA44484078401C434929
:101F200048703D48C069401C3B49C86146498842E9
:101F30000ED300203849C8613C48407A3B4948707C
:101F40000846807A887000204872887205F0B0FBDD
:101F50002F4800788007C00F00282AD02C48806ABC
:101F6000002804D02A48806A401E294988623748E0
:101F70004068002804D035484068401E3349486016
:101F80002348C06B002814D02148C06B401E204954
:101F9000C8630846C06B00280BD12248407840082F
:101FA00040002049487008464078022188431D4976
:101FB00048701A4800798007C00F002852D019488D
:101FC00040784007C00F00284CD121480078C00756
:101FD000C00F002846D11F480078C007C00F002856
:101FE00040D11D480078C007C00F00283AD11B48D7
:101FF0000078C007C00F002834D119480078C00706
:10200000C00F00282ED100210448416134E00000B7
:1020100094090020A004002088080020D409002092
:102020004C0000204300002084000020700A0020A3
:10203000FFFF0000B0040020D4080020E0A501004C
:1020400040190100A08C000000650400540000202D
:102050000C0A0020200A0020340A0020480A002030
:102060005C0A00205A4840695A49884204D25848BC
:102070004069401C564948615548007E8007C00FA2
:10208000002809D05448007B002805DD5248007B19
:10209000401EC1B25048017350480078C009002862
:1020A00030D04F4840694F4988422BD24C48406954
:1020B000401C4B49486125E049484079012813D12B
:1020C0004348406A002804D04148406A401E4049C5
:1020D00048624348C0683F49884213D24048C068BC
:1020E000401C3F49C8600DE03D484079032809D1B4
:1020F0003B4800693749884204D239480069401C8E
:102100003749086138480078C007C00F00280AD056
:10211000354840682F49884208D233484068401CFF
:102120003149486002E000202F4948602F4800787C
:10213000C007C00F00280AD02C48406825498842B3
:1021400008D22A484068401C2849486002E0002024
:102150002649486026480078C007C00F00280AD0EA
:10216000234840681B49884208D221484068401CE7
:102170001F49486002E000201D4948601D48007862
:10218000C007C00F00280AD01A4840681149884289
:1021900008D218484068401C1649486002E00020F8
:1021A0001449486014480078C007C00F00280AD0BE
:1021B000114840680749884208D20F484068401CCF
:1021C0000D49486002E000200B49486010BD000046
:1021D000D4090020FFFF0000B409002043000020C4
:1021E00088080020401901000C0A0020200A002065
:1021F000340A0020480A00205C0A002070470000D2
:1022000010B5FE488079012805D1FD49C8790CF048
:10221000B1FE044604E0FA4948780CF0ABFE0446EF
:10222000F6484079032803D10421F64841715BE266
:10223000F54800784006C00F002803D00121F1487E
:10224000417151E2EF4800784007C00F002809D1E2
:10225000EA488079012805D0EA4800794007C00F94
:10226000002857D00221E7484171E44880790128CD
:10227000DDD1E6480078C007C00F002805D1E4484A
:102280000078C007C00F002807D0DE48007940085A
:102290004000401CDB49087126E2DB4840784007DB
:1022A000C00F0028C3D0D7484069DA49884207D216
:1022B000D448007940084000401CD249087113E21C
:1022C000D0484069D449884206D2CE4800794008B7
:1022D0004000CC49087107E2CA484069CF498842AA
:1022E0000ED2C848007940084000401CC54908711A
:1022F0000846C07800289AD108464078C870F3E1B3
:10230000C048007940084000BE490871C149BD4835
:102310004161E9E1BC480078C009002803D00521EB
:10232000B8484171E0E1B8480078C007C00F002804
:1023300019D0B6480078C007C00F00280BD1B448A8
:102340000078C007C00F002805D1B5480078C00745
:10235000C00F002807D0AB48007940084000401C5F
:10236000A8490871C0E1A84800788007C00F00287C
:102370004BD0AC480078C007C00F002817D1A34845
:102380000078C007C00F002811D1A1480078C0070D
:10239000C00F00280BD1A4480078C007C00F002848
:1023A00005D19F480078C007C00F00282DD0954860
:1023B00040699849884215D3924840699B498842B0
:1023C00009D202218F484171007940084000401C29
:1023D0008C49087110E08B48007940084000894919
:1023E000087109E087480069002805D1854800790F
:1023F0004008400083490871824840698649884204
:1024000087D349107F4841616EE17F48407840079B
:10241000C00F00286FD07C480078C007C00F00288C
:1024200038D002217748417140697A49884207D201
:102430007448007940084000401C7249087153E11B
:10244000704840697449884206D26E480079400855
:1024500040006C49087147E16A4840696F49884209
:102460000ED26848007940084000401C6549087158
:102470000846C0780028C7D108464078C87033E1C4
:1024800060480079400840005E49087161495D4834
:10249000416129E15C4800788007C00F0028B3D073
:1024A000584840695B49884215D30221554841711B
:1024B00040695E49884207D252480079400840008E
:1024C000401C5049087121E04E4800794008400006
:1024D0004C4908711AE0564800788007C00F002860
:1024E0000AD04A48C068FF212D3188420EDDC8213C
:1024F000444801610AE012E042480069002805D121
:1025000040480079400840003E4908713D48406914
:102510004149884293D349103A484161E4E039483F
:102520004078042868D138480078C007C00F0028D8
:102530002FD03448807833494978884203D13148D4
:10254000407903280DDA3748C16820461E308142A1
:1025500003DB04212B484171C6E003212948417166
:10256000C2E028484079042809D12E48C168204695
:102570000A30814202DC032122484171B4E029483B
:10258000C16820461E30814202DB04211D48417192
:10259000AAE01D4800788007C00F002868D01948BD
:1025A000807818494978884209D11648407903282B
:1025B00005DB14480078C006800F022844DA114871
:1025C0000078182188430F490978C906890F491CEA
:1025D000C9001822114008430A490870C006800F3C
:1025E00002282CDB08460078182188431030054962
:1025F00008700C48C0681DE03EE00000880800201C
:10260000700A0020D409002043000020200A002086
:10261000340A002070170000E02E0000383100005E
:102620005C0A00200C0A0020480A00209C180000C8
:1026300094090020FA2803DB04213648417153E055
:102640000321344841714FE032484079042807D1D2
:102650003148C068E62847DA03212E48417143E03B
:102660002D48C068FA283FDD04212A4841713BE02B
:1026700003212848417137E026484078002820D1BE
:102680002648C07E4007400F03000DF00DFB0504F7
:10269000080C1014180004201E49487010E0032094
:1026A0001C4948700CE002201A49487008E00120DB
:1026B0001849487004E003201649487000E000BF44
:1026C00012E014484078012803D1042111484171D7
:1026D0000AE010484078022803D103210D484171D7
:1026E00002E002210B4841710A4880780949497883
:1026F000884209D007484079032805DA0548007860
:1027000018218843034908700248407801498870BD
:1027100010BD0000D40900200C0A00204809002048
:1027200064480078C007C00F002803D00421624825
:102730004176BDE0614800784006C00F002805D111
:102740005F4800784007C00F002803D001215A4895
:102750004176ADE0594800788007C00F00282BD0A3
:102760005848C068322813DB57484078282803DCD3
:102770000221514841769BE0534840783C2803DAD7
:1027800003214D48417693E003214B4841768FE089
:102790004D484078282803DC03214748417687E0EC
:1027A000494840783C2803DA0321434841767FE0DA
:1027B0000421414841767BE040480078C007C00FC3
:1027C000002875D03D4840788006C00F002807D00B
:1027D0003948407E01286BD002213748417667E0B6
:1027E00036480078C009002803D0052132484176D8
:1027F0005EE03448C068FF21AF31884213DB3248C5
:102800004078282803DC04212B48417650E02E48EC
:1028100040783C2803DA04212748417648E0042127
:102820002548417644E02748C068FF215F3188424F
:1028300013DB25484078282803DC03211E48417615
:1028400036E0214840783C2803DA03211A484176D3
:102850002EE00421184841762AE01A48C068C828AA
:1028600013DB19484078282803DC022112484176FE
:102870001EE0154840783C2803DA03210E484176D3
:1028800016E003210C48417612E00F4840782828D2
:1028900003DC0221084841760AE00B4840783C28D6
:1028A00003DA02210448417602E00221024841761F
:1028B00070470000D4080020D40900204300002005
:1028C000980A0020480A00209409002010B507F05B
:1028D00027FB07F01DFE07F027FE07F0CFFD174886
:1028E000407903000DF0E0F90504070A0D1013000C
:1028F00000F01AFA0CE000F0E3FA09E000F056FBF1
:1029000006E000F021F903E001F052FB00E000BF17
:1029100000BF04F079FB05F0EBF804F06BFB07F067
:10292000B1FA07F0A9FE07F04FFA07F0EBFA07F04B
:1029300067FA04F059FB0AF037FF10BD8808002041
:102940000EB54648007800F099F8029043480078A8
:10295000FDF766FE424841490978405C1E3841B2A5
:10296000019140483D490978415C00913B4800781D
:10297000042811D16846007A3B4908706846007AFD
:10298000002860D1684604214156374801726846E4
:1029900000783549487256E030480078022811D155
:1029A0006846007A314908706846007A00284AD1A2
:1029B0006846042141562D480172684600782B492B
:1029C000487240E025480078032811D16846007A13
:1029D000274908706846007A002834D168460421E7
:1029E00041562348017268460078214948722AE01E
:1029F0001A480078002811D16846007A1D490870ED
:102A00006846007A00281ED16846042141561948BC
:102A10000172684600781749487214E00F48007840
:102A2000012810D16846007A134908706846007A78
:102A3000002808D16846042141560F4801726846B3
:102A400000780D49487205480078401CC0B203491F
:102A50000870052801DB002008700EBD1C00002056
:102A600012000020170000205C0A0020480A002005
:102A7000340A00200C0A0020200A002001462C48BD
:102A8000405C002832D188002A4A10582A4A9042D5
:102A900010D90020294A50542948405C401CC0B23B
:102AA000274A5054012840DB002050540120204A7E
:102AB00050543AE088001F4A1058292810D20020AC
:102AC0001F4A50541D48405C401CC0B21B4A505421
:102AD00001282ADB002050540120154A505424E0DC
:102AE0000020164A5054164A50541EE08800114ADD
:102AF00010583D2816D3880010580F4A143A9042B7
:102B000010D81048405C401CC0B20E4A50540528F2
:102B10000BDB00205054094A5054094A5054044ACF
:102B2000505402E00020074A50540148405C70476E
:102B30001D00002078040020D70F00002200002094
:102B4000270000202C00002010B56D4800794008B7
:102B50004000401C6A4908710846007E4008400059
:102B6000401C08766748807900280DD166480078B7
:102B700040084000401C6449087008460078022163
:102B80008843614908700CE05F48007840084000C5
:102B90005D4908700846007802218843801C5A4924
:102BA000087059480078C007C00F002826D03C2084
:102BB0005649C8705648007840084000544908708B
:102BC000524800788007C00F002807D0514800788D
:102BD00040084000401C4F49087005E04D4800780F
:102BE000400840004B49087000204A4948604A4864
:102BF000007840084000484908701CE042480078CE
:102C00008007C00F002816D032204049C8704048C5
:102C1000007840084000401C3D4908703D4800785D
:102C2000400840003B4908703B480078400840009D
:102C3000401C39490870344800784007C00F3249B9
:102C40000978C907C90F884209D12F4800780007C1
:102C5000C00F2D4909788907C90F884206D02B4833
:102C60000078400840002949087006E027480078AD
:102C700040084000401C2549087000202349886214
:102C80002648007804218843001D2449087008461E
:102C9000007840084000401C08702148007804215A
:102CA0008843001D1E49087008460078400840000F
:102CB000401C0870144800780421884312490978A0
:102CC00089000422114008430F4908700846007823
:102CD000082188430C4909788907C90FC9000822CF
:102CE0001140084308490870064800690D498842A8
:102CF00004D300200349086104F0DAFC10BD000091
:102D0000D4090020880800204300002094090020F6
:102D10004C00002054000020810000205C000020B6
:102D2000AC0A00205046000010B50A2007F0F0FC65
:102D30005E48007A03287DDB09F0B2FF0AF0CEF886
:102D40005B48807A5B4988715948C17A5948C1719A
:102D50005748017B574801725548417B554841729D
:102D60005348817B534881725148C17B5148C1729D
:102D70004F48017C4F4801734D48417C4D48417399
:102D80004B48817C4B4881734948C17C4948C17399
:102D90004748017D474801744548417D4548417495
:102DA0004348817D434881744148C17D4148C17495
:102DB0003F48017E3F4801753D48417E3D48417591
:102DC0003B48807E3B4988753948C17E3948C1758A
:102DD0003748017F374801763548417F354841768D
:102DE0003348817F334881763148C17F3148C1768D
:102DF0002F48203001782F4801772D482030417826
:102E00002C4841772A48203081782A488177284801
:102E10002030C1782748C1772548203001792548DE
:102E20001630817222482030417922481630C17212
:102E30001F4800E039E0203081791E4816300173C8
:102E40001B482030C1791B48163041731848203088
:102E5000017A18481630817315482030417A154898
:102E60001630C1731148407901280BD01248007800
:102E70004007C00F002805D1104800784006C00F59
:102E8000002807D0FF2091300A4908630120074934
:102E9000487106E0E120C0000649086302200349AA
:102EA00048710CF09FF803F0DFFF10BD8808002088
:102EB0004E01002094090020000A00204300002059
:102EC00000203149C87231480078400840002F493D
:102ED000087008460078022188432C49087008468B
:102EE000007810218843294908700846007820217D
:102EF0008843264908702648007840084000244945
:102F000008702448007940084000224908710846AA
:102F1000007E4008400008761F48007840084000C6
:102F20001D4908701D480078400840001B49087082
:102F30001B4800784008400019490870194800787B
:102F400040084000174908700020114988620F4866
:102F50000078402188430D4908700020124988619B
:102F6000C8610C4800798007C00F002802D10021F9
:102F70000848C1600748007E8007C00F002802D1C2
:102F80000021044801627047700A002043000020BD
:102F900094090020D4090020540000204C00002097
:102FA000810000205C0000208808002010B5FB484C
:102FB000007840084000F9490870F9480079400855
:102FC0004000401CF64908710846007E4008400059
:102FD000401C0876F348807905287DD243007B4465
:102FE0009B885B009F4404006C01B502ED02BD05A7
:102FF0000024ED480078C007C00F002814D1EB482A
:103000000078C007C00F00280ED1E94948780BF0BE
:10301000B1FFE6490969884206DBE34840780421AC
:103020008843001DE0494870DF48007840084000B0
:10303000401CDD4908700846007802218843DA49BF
:1030400008700846007810218843D7490870084660
:10305000007820218843D449087008464078C00988
:1030600000280FD0D24840781D2803D0D04840789F
:103070001E2807D1CF48007840084000401CCD49A9
:103080000870DCE0C9480078C007C00F002817D1DD
:10309000C9480078C007C00F002811D1C748007880
:1030A000C007C00F00280BD1C5480078C007C00F6B
:1030B000002805D1C3480078C007C00F002870D091
:1030C0000020BC498862BC480078C007C00F0028B7
:1030D00007D1BA48007800E0F6E3C007C00F002827
:1030E00006D0B448007840084000B2490870A6E015
:1030F000B4480078C007C00F00281CD0B148406811
:10310000B149884207D2AB48007840084000401CD3
:10311000A849087093E0AB484068AC49884206D2A1
:10312000A448007840084000A249087087E00020C9
:10313000A449486083E09D480078C007C00F00287C
:1031400005D19F480078C007C00F002877D0974866
:103150000078C007C00F002828D0944840689C49D8
:10316000884212D29348007840084000401C9149A0
:1031700008700820487108464179801D405C8D49DF
:10318000887008468078C87059E08848406891493E
:10319000884207D287480078400840008549087077
:1031A0004DE026E000208149486048E084480078EE
:1031B000C007C00F002842D0814840688449884237
:1031C00007D27C48007840084000401C79490870CC
:1031D00035E07B4840687F49884206D275480078D0
:1031E000400840007349087029E000207449486095
:1031F00025E06C48007A0A2821DB6B4840784007BC
:10320000C00F00281BD16A48C07A01280BDB684830
:10321000C07A072807DA6748007840084000401C59
:10322000644908700BE0634800788007C00F0028ED
:1032300005D160480078400840005E4908705D484C
:103240000078C007C00F002811D158480078C00787
:10325000C00F00280BD15A480078C007C00F0028C3
:1032600005D158480078C007C00F002807D04C4847
:10327000007940084000401C4949087105E0484871
:10328000007940084000464908714D480078C00761
:10329000C00F002805D1474800788007C00F0028DC
:1032A00006D14D480078400840004B49087006E0C0
:1032B0004948007840084000401C47490870F0E346
:1032C00000243948007840084000401C3649087006
:1032D0000846007802218843334908700846007880
:1032E000102188433049087008460078202188431F
:1032F0002D4908702D480078C007C00F002817D14D
:103300002D480078C007C00F002811D12B48007845
:10331000C007C00F00280BD129480078C007C00F94
:10332000002805D127480078C007C00F00287DD0AD
:1033300000202049886220480078C007C00F00287C
:1033400005D11E480078C007C00F002806D01948D4
:1033500000784008400017490870C5E01948007817
:10336000C007C00F00283DD0164840681649884263
:1033700007D21048007840084000401C0D490870F2
:10338000B2E0104840681149884227D209480078C5
:103390004008400007490870A6E0000081000020B6
:1033A000D409002088080020430000200C0A0020D7
:1033B000700A002094090020200A0020340A00200E
:1033C000480A00205C0A0020701700002823000033
:1033D0005046000008520000540000200020FE4922
:1033E000486081E0FD480078C007C00F002805D183
:1033F000FB480078C007C00F002875D0F748007858
:10340000C007C00F002829D0F4484068F549884219
:1034100014D2F548007840084000401CF24908707A
:103420000820487108464179801D00E039E0405C81
:10343000ED49887008468078C87055E0E7484068D4
:10344000EA49884206D2E848007840084000E64948
:10345000087049E00020E149486045E0E048007814
:10346000C007C00F00283FD0DD484068DD498842D2
:1034700007D2DD48007840084000401CDA49087057
:1034800032E0D7484068D949884206D2D648007809
:1034900040084000D449087026E00020D049486028
:1034A00022E0CE48C068B4280DDBCF480078400841
:1034B0004000401CCC490870CD4840780421884326
:1034C000CB49487010E0C548C068A0280CDCC6484D
:1034D000007840084000C4490870C548407804217D
:1034E0008843001DC2494870BF480078C007C00F1C
:1034F000002805D1BC4800788007C00F002807D0FD
:10350000BC48007940084000401CBA49087105E0F9
:10351000B848007940084000B6490871B0480078C2
:10352000C007C00F002805D1AF4800788007C00F42
:10353000002806D1B048007840084000AE49087025
:1035400006E0AD48007840084000401CAA490870D9
:10355000FEE30024A648007840084000A449087013
:103560000846007802218843A1490870084600787F
:103570001021884310309E490870084600782021A9
:1035800088439B490870084640780421884398493D
:103590004870954800784008400093490870002022
:1035A00088629448007E40084000924908760021D5
:1035B0009048416290480078400840008E49087069
:1035C000C6E386480078C007C00F002817D18B4893
:1035D0000078C007C00F002811D189480078C007C3
:1035E000C00F00280BD17E480078C007C00F00280C
:1035F00005D179480078C007C00F002820D07C484A
:103600000078202188437A490870084600784008ED
:103610004000087008460078022188437449087009
:1036200008460078102188431030714908706E48B0
:103630000078400840006C490870002088628FE2E2
:103640006B4800788006C00F002852D16848007887
:103650004008400066490870084600780221884307
:103660006349087008460078102188436049087053
:103670005A48C068FA2806DB08460078400840002F
:10368000401C08702DE05548C068C8280FDB58481A
:10369000007810218843103055490870524800784E
:1036A00040084000504908700020886219E04B48EB
:1036B000C068BE280EDB4E480078102188434C4974
:1036C00008704948007840084000474908700020C9
:1036D000886206E04648007802218843801C4449FD
:1036E0000870434800782021884320304049087002
:1036F00036E23F480078C007C00F00286AD03A4839
:10370000007840084000401C374908703D48007868
:10371000400840003B49087033480078C007C00F9C
:10372000002807D03348007940084000401C314948
:10373000087105E02F480079400840002D490871C4
:1037400027480078C007C00F002805D12648007818
:103750008007C00F002806D12748007840084000A5
:103760002549087006E02448007840084000401CC5
:10377000214908701E4800784006C00F00280FD06D
:10378000214880692149884201D3142409E01E4858
:1037900080691F49884201D30A2402E0002400E026
:1037A00000240E48C1682046E630814246DC1648B7
:1037B0002030407A401CC1B2134820304172642945
:1037C0003FDB002141720A48007840084000084968
:1037D00008701FE03EE000005C0A00200C0A002098
:1037E000480A0020504600009409002008520000BA
:1037F00043000020D409002054000020200A0020AB
:10380000340A00204C0000208808002040190100E4
:10381000A08C000008460078102188431030FE4933
:103820000870FE48C1682046C830814209DCFA4869
:10383000007820218843F849087002E00021F84808
:1038400041720021F648093041708170C1700171E8
:10385000417185E1F04800788007C00F00287DD0D5
:10386000F048007840084000401CEE490870EE48DF
:10387000007840084000401CEB490870EB48007895
:1038800040084000E9490870E6480078C007C00FCA
:10389000002821D0E34800788007C00F002805D118
:1038A000E348C068FF215F31884205DADD480078CF
:1038B0008007C00F002808D0DE480079400840008B
:1038C000401CDC49087111E041E2DA480079400807
:1038D0004000D849087109E0D6480069002805D1A0
:1038E000D448007940084000D2490871CA4800789D
:1038F0004006C00F00281CD0C94820388069CE4936
:10390000884202D31D24E44314E0C548203880696E
:10391000CA49884202D31324E4430BE0C04820384C
:103920008069C749884202D30924E44302E00024A5
:1039300000E00024B948C1682046BE30814220DB47
:10394000B74809304078401CC1B2B54809304170D1
:1039500064291ADB00214170AF4800E01EE00078C6
:1039600040084000AC4908700846007802218843AE
:10397000A94908700846007810218843A6490870B4
:1039800003E00021A648093041700021A44841729B
:1039900009308170C17001714171E1E0A148007886
:1039A000400840009F4908709F4800784008400048
:1039B0009D4908709D480078400840009B49087068
:1039C000954800784006C00F002811D09448203850
:1039D00080699A49884201D314240AE0904820382B
:1039E00080699749884201D30A2402E0002400E05C
:1039F000002489480078C006C00F002842D08748BC
:103A0000C1682046FA3081421CDB85480930807845
:103A1000401CC1B282480930817064290DDB00214D
:103A200081707D480078102188437B4908700846E2
:103A3000007840084000401C087000217848093098
:103A4000C17019E07548C068BE2815DC744809309B
:103A5000C078401CC1B272480930C170642907DBCC
:103A60000021C1706C480078102188436A490870B1
:103A700000216B48093081700021694809300171CB
:103A8000417168E0644800784006C00F00281DD0EE
:103A90006348203880696849884203D31D24E44381
:103AA00015E055E15E48203880696449884202D3B8
:103AB0001324E4430BE05A48203880696049884267
:103AC00002D30924E44302E0002400E00024534828
:103AD000C068C82817DB524809300079401CC1B2C1
:103AE0004F4809300171642908DB002101714A48FF
:103AF0000078102188431030474908700021484859
:103B00000930417122E04548C1682046B430814205
:103B100017DC434809304079401CC1B240480930A5
:103B20004171642908DB002141713B480078022182
:103B30008843801C384908700021394809300171D8
:103B400004E00021364809300171417100213448F8
:103B500009308170C17000213148417209304170D3
:103B6000F6E000242C4800788007C00F002814D10C
:103B70002A480078C007C00F00280ED13149487884
:103B80000BF0F8F925490969884206DC224840789B
:103B900004218843001D204948701F4800784008D0
:103BA00040001D4908700846007802218843801CA7
:103BB0001949087008460078102188431649087092
:103BC0000846007820218843134908700846407849
:103BD000C00900280BD01B484078112807D1114894
:103BE000007840084000401C0E49087069E00B480E
:103BF0000078C007C00F002834D10D480078C007F6
:103C0000C00F00282ED110480078C007C00F002830
:103C100028D10E4800781BE0430000200C0A002049
:103C2000A8080020940900204C0000205400002027
:103C3000200A0020D4090020E0A50100401901005D
:103C4000A08C0000700A0020340A0020480A0020DE
:103C5000C007C00F002805D1C5480078C007C00FB5
:103C6000002808D0C348007840084000C1490870C7
:103C70000020886225E0C048007A0A2821DBBF487E
:103C800040784007C00F00281BD1BD48C07A0128EA
:103C90000BDBBB48C07A072807DAB6480078400833
:103CA0004000401CB34908700BE0B2480078800720
:103CB000C00F002805D1AF48007840084000AD494A
:103CC0000870AC480078C007C00F002820D0A94871
:103CD00000788007C00F002805D1AA48C068FF21DE
:103CE0005F31884205DAA34800788007C00F0028BA
:103CF00007D0A548007940084000401CA24908713F
:103D000010E0A1480079400840009F49087109E08F
:103D10009D480069002805D19B4800794008400073
:103D2000994908719948007840084000401C97491B
:103D300008709748007840084000954908709548F9
:103D4000007840084000401C9249087000E000BF25
:103D500000BF8948007A0A287ADB8F480078C007BC
:103D6000C00F002874D187480078C007C00F002812
:103D70006ED18A480078C007C00F002868D18848F3
:103D80000078C007C00F002862D179480078C007CA
:103D9000C00F00285CD179480078C007C00F002808
:103DA00005D1764800788007C00F002850D07148B0
:103DB00000788007C00F00284AD17148C07A0728D0
:103DC00046DA6F48C07A002842D0764880780528C5
:103DD0003ED06B4820308079012839D07148C078B6
:103DE000052835D06648203000790E2830D0644848
:103DF0002030007901282BD06148203000790F282D
:103E000026D05F4820304079012821D05C482030FE
:103E1000407910281CD063484078052818D06148A4
:103E20004079052814D05F48C079052810D05D4836
:103E3000007A05280CD04F48007840084000401C0C
:103E40004C4908704D484078042188434B494870DC
:103E50004A4800784007C00F48490978C907C90F88
:103E6000884211D0454800780007C00F43490978BF
:103E70008907C90F884207D03E48007840084000B3
:103E80003C490870002088623C4800780007C00F59
:103E90003A4909788907C90F88420BD0374800781A
:103EA0008007C00F002805D138480078400840003E
:103EB000364908703C4800780007C00F00282BD016
:103EC0002C480078400840002A4908702E480079A4
:103ED000400840002C4908710846007E4008400018
:103EE00008762B4800784008400029490870274888
:103EF00000784008400025490870264800784008AE
:103F000040002449087029480078400840002749AB
:103F100008700020174988621848007804218843F7
:103F20001649097889000422114008431349087092
:103F3000084600780007C00F09788907C90F884232
:103F400007D00E4800788007C00F002801D102F08A
:103F50008BFF0A48007808218843084909788907B7
:103F6000C90FC9000822114008430449087010BD58
:103F70005C0A0020940900208808002043000020EB
:103F8000700A0020200A0020D40900204C000020E4
:103F900054000020810000200C0A0020340A002078
:103FA000480A0020B8080020980A00205C00002081
:103FB0007047000010B56C48007B002806D001282F
:103FC00020D002282ED0032871D13BE0674800782A
:103FD000802188438030654908700020624948602C
:103FE0008860634800788007C00F002809D06148C6
:103FF00000788007C00F002803D00846007B401CD3
:104000000873ADE05848406857498968884208D12C
:10401000594855494860002088600846007B401C8C
:1040200008739DE0504840684F498968884208D12C
:1040300000204D494860886048730846007B401C5A
:1040400008738DE04848407B03000BF02DFE080507
:10405000223132507073808543484068002817D160
:1040600041488068002813D13F48807B002806D152
:1040700001203D498873FF205630486003E0FF204F
:104080005630394948603848407B401C36494873AF
:1040900063E035484068002808D13348806800282C
:1040A00004D13148407B401C2F49487355E056E00D
:1040B00053E0324840788006C00F002804D13048D1
:1040C00040682949886008E02B48274988602748CC
:1040D0000078102188432549087023484068224908
:1040E0008968884202D104201F49487335E023487B
:1040F00040788006C00F002818D121488068002829
:1041000014D01F488068184988600846406889684C
:10411000884202D100201A4988600620124948735B
:1041200012480078102188431049087015E009F002
:10413000C3FC12E00C4840680B498968884205D1ED
:1041400004200949487300200D49886005E00120DA
:1041500040020549886000E000BF00BF00E000BFEA
:1041600000BF09F0DBFB10BDA004002035000020DB
:1041700078000020680000200509000043000020AE
:10418000B004002010B505F0B5FD0A4A1278D10739
:10419000C90F094A1278D007C00F002207F06CFE41
:1041A000C407E40F04480078400840002043024957
:1041B000087010BD330000203400002010B5024606
:1041C0000D2A00DA0D22202A00DD202214460D3CA3
:1041D00023000BF069FD140B0D0F11131517191B9C
:1041E0001D1F21232527292B2D2F3133372027E091
:1041F000392025E03B2023E03D2021E03F201FE047
:1042000040201DE042201BE0442019E0462017E03A
:10421000482015E0492013E04B2011E04D200FE02D
:104220004F200DE051200BE0522009E0542007E020
:10423000562005E0582003E0592001E0482000BF47
:1042400000BF002901D0431CD8B2094B9B79042B35
:1042500006D1372800DA3720512807DD512005E044
:10426000402800DA40205A2800DD5A2010BD000006
:10427000880800200146002038291DD03A291BD08B
:104280003C2919D03E2917D0412915D0432913D0F4
:10429000452911D047290FD04A290DD04C290BD0E0
:1042A0004E2909D0502907D0532905D0552903D0CC
:1042B000572901D05A2900D10120704710B5FE4876
:1042C000C0788006C00F00287ED0FC4840790328C3
:1042D0007BD1FB48007840084000F94909788907FC
:1042E000C90F0843F6490870084600780221884340
:1042F000F3490870F348C07808218843F0490978E9
:10430000C900082211400843EE49C8700846C07E23
:1043100008218843EA490978C90011400843E9495E
:10432000C876E7480078C007C00F002805D10320F1
:10433000E5494873E548E6494860E64800780421C5
:104340008843E44909780907C90F8900042211400C
:104350000843E04908700846007808218843DD4991
:104360000870D848007C10218843DA490978490749
:10437000C90F0901102211400843D24908740846A8
:104380001A30C07904218843D24909784907C90FF6
:104390008900042211400843CA491A31C871C6482D
:1043A000007804218843C44909780907C90F8900A6
:1043B00011400843C0490870084600780821884326
:1043C000BD490870BF4801E0E8E11EE0C07B102154
:1043D0008843B94909784907C90F090110221140DA
:1043E0000843B849C87308461A30C0791021884379
:1043F000B14909784907C90F090111400843B1497A
:104400001A31C8710220AD494871AB48C0784007E5
:10441000C00F002806D0A9484079012808D102F031
:104420005FFD05E0A5484079022801D103F040F97D
:104430000024A14800790007000F03000BF034FCB2
:104440000933060F183333332A2133009B48807910
:10445000042803D0042099498871012424E0974856
:104460008079012803D001209449887101241BE040
:1044700092488079002803D0002090498871012457
:1044800012E08E488079032803D003208B4988717D
:10449000012409E089488079022803D00220874955
:1044A0008871012400E000BF00BF002C46D000202E
:1044B0008949C872087389480078400840008749D4
:1044C000087008460078022188438449087008462D
:1044D000007810218843814908700846007820211F
:1044E00088437E49087008464078042188437B4908
:1044F00048700846007840218843784908706F4822
:104500008079012817D176480A214156122903DA09
:1045100010207149C87111E071480A2141562229C1
:1045200003DD20206C49C87108E06D48807A801E48
:104530006949C87102E018206749C8715E4840792E
:10454000C006C00E2021081A63494870084640780A
:10455000202801DD202048705F4840780D2802DACD
:104560000D205D4948705D4800784006C00F002866
:1045700003D05948407858494872504880790028FB
:1045800003D1554840785449C8704C488079042874
:1045900003D151484078504948710020474988610B
:1045A0000024454880794007400F03000BF07CFB56
:1045B00007052A0E172A20292A0041484078042896
:1045C00000D0012404203E4948701CE03C4840785B
:1045D000032800D0012403203949487013E03848EB
:1045E0004078022800D001240220354948700AE0B2
:1045F00033484078012800D0012401203049487018
:1046000001E000E000BF00BF002C11D0334840782B
:104610000421884331494870084600784021884386
:104620002E490870264800781821884324490870CC
:10463000214880798006400F072807D1204800785C
:1046400040084000401C1E49087005E01C480078E6
:10465000400840001A49087000241748C07B4007F2
:10466000400F00280DD11D4800784006C00F0028DB
:1046700000D0012419480078402188431749087068
:104680000DE0164800784006C00F002800D1012434
:104690001248007840218843403010490870002CAF
:1046A0003BD00E4800784006C00F00281ED00548B9
:1046B000407F0949487215E0AC0A002088080020B4
:1046C000D409002048090020A004002005090000AA
:1046D000B00400205C000020700A0020430000208D
:1046E0000C0A00202E488079887209E02D48407A13
:1046F0002C4948700846807A887000204872887279
:1047000029484078042188432749487000202749D8
:104710008861C8612649887009E0264AD279520723
:10472000D10F204A5078FFF749FD1E4988701E4876
:1047300000784006C00F002803D01A488078194935
:1047400088721C48C0790007C00F002807D018489D
:10475000007840084000401C1549087005E01448E6
:10476000007840084000124908700E480078400860
:1047700040001049097A0906C90F08430949087021
:104780000C48C078202188430A49C87004481A3868
:1047900000780821884302491A39087010BD0000CA
:1047A00062090020700A00204300002088080020D1
:1047B000D4090020AC0A002070B50120FE4908771A
:1047C0000021FD484177FD48807903000BF06CFA29
:1047D00005040C141C242C00F748807F00090001FC
:1047E000401CF549887720E0F348807F00090001EC
:1047F000C01CF149887718E0EF48807F000900016C
:10480000801CED49887710E0EB48807F00090001AB
:10481000401DE949887708E0E748807F00090001EA
:10482000001DE549887700E000BF00BFE3484079FC
:10483000002803D0E1484079012806D1DE48807F76
:1048400010218843DC49887706E0DB48807F10210F
:1048500088431030D8498877D748807F2021884303
:10486000D54988770846807F40218843D249887798
:104870000846807F80218843D14909780906C90FFD
:10488000C901802211400843CB498877CD48407840
:104890000D2811DBCB48407820280DDC0846C07F6E
:1048A00040094001C74949782022511AC906C90E5A
:1048B0000843C149C87706E0BF48C07F40094001AE
:1048C0000830BD49C877C0484078042806D1BA48A6
:1048D000C07FE0218843B849C8771EE0BA484078D5
:1048E000012807D1B448C07FE0218843A030B249F5
:1048F000C87712E0B4484078022807D1AE48C07F9C
:10490000E02188436030AC49C87706E0AA48C07F00
:10491000E02188434030A849C877AA498878FFF742
:10492000A9FCC307DB0FA4481C30007940084000F5
:104930001843A1491C3108710846007902218843B7
:104940009D491C31087108460079042188439A4921
:104950001C31087108460079082188439A49097872
:104960004907C90FC90008221140084392491C3168
:10497000087108460079102188438F491C3108715D
:1049800008460079202188438B491C31087108466C
:104990000079402188438D490978890140221140DE
:1049A000084385491C3108710846007980218843F5
:1049B000864909788907C90FC90180221140084337
:1049C0007D491C3108710846407980088000487193
:1049D000084640790421884377491C3148710846CC
:1049E00040790821884374491C3148710846407950
:1049F0001021884370491C314871084640792021B4
:104A000088437149097849012022114008436A49C5
:104A10001C31487108464079402188436A49097829
:104A2000890140221140084363491C3148710846FE
:104A300040798021884363490978C9018022114067
:104A400008435D491C314871604800784007C00F39
:104A500000280FD05D480078C007C00F002809D09B
:104A60005A4948683C21FBF7D3FBC1B252481C307D
:104A7000817103E0002150481C3081715348007857
:104A80004007C00F00280ED050480078C007C00F64
:104A9000002808D04D4948683C21FBF7B9FB46483F
:104AA0001C30C17103E0002143481C30C1714748EC
:104AB00000784007C00F00280FD0444800788007D6
:104AC000C00F002809D0414948683C21FBF7A0FBF2
:104AD000C1B239481C30017203E0002136481C3055
:104AE00001723A4800784007C00F00280ED03748BE
:104AF00000788007C00F002808D0344948683C215E
:104B0000FBF786FB2C481C30417203E000212A4849
:104B10001C304172002128481C3081722430007EF4
:104B2000042809D124481C30807A40084000401CE9
:104B300021491C3188722BE01F484030007E032839
:104B400009D11D481C30807A02218843801C1A49F3
:104B50001C3188721CE018484030007E022809D1C0
:104B600015481C30807A04218843001D12491C31ED
:104B700088720DE010484030007E012808D10E48B0
:104B80001C30807A0821884308300B491C31887218
:104B900009481C30807A1021884307491C318872EB
:104BA0000846807A2021884303491C3188720846D0
:104BB000807A402188430BE0AC0A0020880800205E
:104BC00043000020700A0020D4090020000A0020C1
:104BD000FE4988720846807A80218843FB491C3947
:104BE0000978C906C90FC901802211400843F74955
:104BF00088720021F548C172C07A40084000F3492C
:104C0000C872F3480078C006C00F002806D00846D6
:104C1000C07A02218843801CEC49C872EB48C07AF4
:104C200004218843E949C872EA480078C006C00FE9
:104C3000002805D1E8480078C006C00F002806D03B
:104C4000E248C07A082188430830E049C872E24847
:104C500000784006C00F002806D0DC48C07A10213A
:104C600088431030D949C872DC4800790007C00F6A
:104C7000002806D0D548C07A202188432030D34967
:104C8000C872D7480078C007C00F002806D0CF48A8
:104C9000C07A402188434030CC49C872D14800785E
:104CA000C007C00F002806D0C848C07A80218843BA
:104CB0008030C649C872CA48C4681920400184427D
:104CC00000DD0446C720C043844200DA0446C834ED
:104CD000A005010EBD480173407B0C218843A10053
:104CE0000C2211400843B94948730846407B8008AC
:104CF000800048730846407BC0218843B34948730D
:104D0000B848C46819204001844200DD0446C72029
:104D1000C043844200DA0446C834AC48407B3021AA
:104D200088432101302211400843A8494873A00557
:104D3000010EA6484176AC4800784006C00F002816
:104D400007D0A248807BC008C000401C9F498873E0
:104D500005E09E48807BC008C0009C4988739B4842
:104D6000807B782188432830984988730846807B67
:104D70008021884380309549887300219348C1730E
:104D80009A498878FFF776FA800140210840034667
:104D90008E48C07B884318438C49C873924800787A
:104DA0004006C00F002821D09048457A8E480078F0
:104DB000C007C00F002805D0681CC5B21F2D0CDD30
:104DC0001F250AE0884800788007C00F002804D01B
:104DD000681EC5B2102D00DA10257C48C07B400942
:104DE0004001E906C90E08437849C8730021774895
:104DF00001747D4800784006C00F002821D07B4810
:104E0000457A79480078C007C00F002805D0A81C53
:104E1000C5B21F2D0CDD1F250AE0734800788007FE
:104E2000C00F002804D0A81EC5B2102D00DA10252E
:104E30006648007C40094001E906C90E0843634901
:104E400008740021614841748174C1740175417511
:104E50008175C1750176644800784006C00F00284E
:104E600060D06248457A60480078C007C00F0028CB
:104E700005D0A81CC5B21F2D0CDD1F250AE05A481D
:104E800000788007C00F002804D0E81EC5B2102D9E
:104E900000DA10254D48407C40094001E906C90E62
:104EA00008434A4948740846807C40094001E906A5
:104EB000C90E0843454988740846C07C4009400132
:104EC000E906C90E08434149C8740846007D4009F7
:104ED0004001E906C90E08433C4908750846407D73
:104EE00040094001E906C90E08433849487508469B
:104EF000807D40094001E906C90E084333498875A1
:104F00000846C07D40094001E906C90E08432F4903
:104F1000C8750846007E40094001E906C90E0843ED
:104F20002A490876002129488176C17601772B49E4
:104F3000C8680A21FBF76CF9C1B2244841772C48B4
:104F4000C4680A212046FBF76DF90446502C00DDA9
:104F500050241320C043844200DA044614341B4812
:104F600084772448C4680A212046FBF75BF904468D
:104F7000502C00DD50241320C043844200DA044644
:104F800014341248C4771C48C4680A212046FBF731
:104F900049F90446502C00DD50241320C0438442BC
:104FA00000DA044614340948203004700B49086ABA
:104FB0000A21FBF72DF9C1B20448203041700F4897
:104FC00041780248203081700C4819E0C80A00205E
:104FD000420000204000002088080020D409002062
:104FE0000C0A0020200A002043000020700A002044
:104FF000480A0020340A00205C0A0020940900209E
:105000004078002806D1FE48C07801090901FC4813
:10501000C17006E0FA48C078010909010F31F8486B
:10502000C170F748C07840218843F649097889075C
:10503000C90F8901402211400143F148C170C07875
:10504000802188430146EE48C17000210171EE487D
:105050000078C006C00F002805D1EC480078C006D3
:10506000C00F002806D0E648007941084900491CD5
:10507000E3480171E2480079022188430146E04893
:105080000171E3480078C007C00F002806D0DC4853
:10509000007904218843011DD9480171D84800795D
:1050A000082188430146D6480171007910218843C0
:1050B0000146D3480171D7480078C007C00F0028C7
:1050C00006D0CF480079202188434118CC4801718F
:1050D000D1480078C007C00F002806D0C848007922
:1050E000402188434118C6480171CC480078C00669
:1050F000C00F002806D0C24800798021884341189B
:10510000BF4801710021BE484171C548007E0007BB
:10511000C00F002806D0BA48407941084900491C10
:10512000B7484171BF48407AF12806D1B448407968
:1051300002218843811CB2484171B448007880063E
:10514000C00F002806D0AE48407904218843011DD5
:10515000AB484171AA484079082188430146A848D4
:1051600041714079102188430146A5484171407939
:10517000202188430146A2484171A4480078400795
:10518000C00F002806D09E4840794021884341182E
:105190009B4841719D4800780007C00F002806D049
:1051A00097484079802188434118954841710021F2
:1051B000934881719C4800788007C00F002806D072
:1051C0008F48807941084900491C8D488171964873
:1051D00000784007C00F002806D089488079022156
:1051E0008843811C864881718F4800780007C00F72
:1051F000002806D08248807904218843011D804818
:1052000081718A488079012806D17D4880790821FA
:10521000884341187A4881718448407901280BD02D
:1052200082484079102807D080480079012803D0AF
:105230007E4800790F2806D1714880791021884373
:1052400041186F488171754800788006C00F0028AA
:1052500006D06B48807920218843411868488171C5
:105260006E4800780007C00F002806D06448807997
:1052700040218843411862488171614880798021CA
:10528000884301465E4881710021C17168480078F9
:10529000C007C00F002806D05948C07904218843B0
:1052A000011D5748C17163480078C007C00F00282E
:1052B00006D05348C0790821884341185048C1712D
:1052C000564800788006C00F002806D04C48C079A8
:1052D0001021884341184A48C1715748407C400713
:1052E000C00F002806D04648C079402188434118A5
:1052F0004348C171FF214248017241728172C172FB
:10530000017341738173C173017441748174C174F9
:10531000017541758175C175017600214176474857
:1053200000780007C00F002806D03548407E4108AD
:105330004900491C324841763A48407AE42806D16F
:105340002F48407E02218843811C2D4841762C48FD
:10535000407E04218843014629484176407E082149
:105360008843014626484176407E10218843014605
:105370002348417632480078C007C00F002806D085
:105380001F48407E2021884341181D484176002156
:105390001B488176807E40084000204909788907B3
:1053A000C90F0143164881761D48006A1921490139
:1053B000884207D91248807E02218843014610485E
:1053C000817606E00E48807E02218843811C0C48CD
:1053D00081760B48807E0421884301460848817607
:1053E000807E08218843174909788907C90FC900B9
:1053F00008221140014302488176807E102123E07B
:10540000E80A00204C00002040000020880800200E
:10541000340A0020480A00205C0A00209409002079
:10542000D409002048090020B8080020900A002074
:10543000200A00200C0A002012090020980A0020EF
:10544000D408002054000020884341180B4881767E
:10545000807E20218843411808488176807E402143
:105460008843411805488176807E80218843411811
:10547000024881760021C17670BD0000E80A002054
:1054800030B57D4C24786407E40F002C19D07B4C98
:105490002479322C05DA794C2479641C774D2C71EF
:1054A0000FE00024754D2C71734C24780425AC4317
:1054B000714D2C702C4624780225AC43A41C6E4DF3
:1054C0002C706D4C2478A407E40F002C7ED00021B2
:1054D000002004E06A4C245C6118441CE0B21228ED
:1054E000F8DB684C6140491CCAB20C04230E644CC2
:1054F0002478A52C7FD1624CA47C944272D1604C5C
:10550000E47C9C426ED1002005E05D4C245C5E4D45
:105510002C54441CE0B21428F7DB5B4C6478002C5C
:105520004BD1594CA478012C47D1574C24790D2CE0
:1055300043D1554CE578554CE573534C6579534C44
:105540006570514CA579514C641C65704E4CE579E1
:105550004E4C641CA5704C4C257A4C4C641CE57078
:10556000494C657A494C641C2571474CA57A474CD7
:10557000641C6571444CE57A444C641CA571424C32
:10558000257B424C641CE5713F4C657B3F4C641CA1
:1055900025723D4CA57B3D4C641C65723A4CE57B05
:1055A0003A4C641CA572384C257C384C641CE5725E
:1055B000354C657C354C641C257300242F4DAC6044
:1055C0002D4C24780825AC432B4D01E013E009E075
:1055D0002C702C4624781025AC43274D2C700024C9
:1055E000264DEC60244C24780225AC43224D2C70CF
:1055F0000024224DEC70214CA468192C02D3022403
:105600001E4D2C701D4CA468641C1C4DAC604B25B9
:10561000ED00AC4220D32C46184DAC60164C2478DB
:105620000825AC430834144D2C70144CE468641CF9
:10563000124DEC604B252D01AC4209D32C460F4D89
:10564000EC600D4C24781025AC4310340A4D2C70BE
:1056500002240A4D2C700EE0074C24780825AC4338
:10566000054D2C702C4624781025AC43024D2C702F
:105670000024024DEC6030BD40000020C406002034
:1056800000070020FFFF0000140700203809002059
:10569000A522384B1A7001225A7000229A70364A9D
:1056A000927BDA700D221A71334A203A127D5A71B8
:1056B000314A0C3A52789A712F4A0C3A9278DA7140
:1056C0002D4A0C3AD2781A722B4A0C3A12795A7235
:1056D000294A0C3A52799A72274A0C3A9279DA722C
:1056E000254A0C3AD2791A73234A0C3A127A5A7321
:1056F000214A0C3A527A9A731F4A0C3A927ADA7318
:105700001D4A0C3AD27A1A741B4A0C3A127B5A740C
:105710000021194A927B502A02D10022174B1A709D
:10572000002004E0134A125C5118421CD0B2122827
:10573000F8DB134A5140491C0E4B99740A04120EAF
:10574000DA74002008E00B4A125C0E4B1A54002257
:10575000084B1A54421CD0B21428F4DB0A4A1278BF
:10576000002A06D1094A127852085200521C074BEF
:105770001A707047EC0600203809002070080020DD
:10578000FFFF0000D8060020C406002040000020D3
:1057900008B5964A12785207D20F002A19D0944AB7
:1057A0001279322A05DA924A1279521C904B1A71F8
:1057B0000FE000228E4B1A718C4A127804239A4310
:1057C0008A4B1A701A46127802239A43921C874B0E
:1057D0001A70864A12789207D20F002A7ED00021D2
:1057E000002004E0834A125C5140421CD0B2814A3E
:1057F0001279521D8242F5DC7E4A1278DD2A6DD183
:105800007C4A5278002AFAD17A4A1279521D794B91
:105810009A5C8A427ED1002005E0764A125C764B83
:105820001A54421CD0B2734A1279921D8242F4DC9F
:10583000714A9278012A7CD16F4AD278032A78D1B2
:105840006D4A12791C2A74D16B4A52796B4B5A708B
:10585000694A9379694A9370674AD379674AD370E2
:10586000654A137A654A1371634A537A634A5371DE
:10587000614A937A614A93715F4AD37A5F4AD371DE
:105880005D4A137B5D4A13725B4A537B5B4A5372DA
:10589000594A937B594A9372574AD37B574AD372DA
:1058A000554A137C554A1373534A537C534A5373D6
:1058B000514A937C514A93734F4AD37C4F4AD373D6
:1058C0004D4A137D4D4A13744B4A537D4B4A5374D2
:1058D000494A937D494A9374474A00E048E0D37DA2
:1058E000464AD374444A137E444A1375424A537E4F
:1058F000424A5375404A937E404A93753E4AD37E4E
:105900003E4AD3753C4A137F3C4A13763A4A537F4A
:105910003A4A01E023E00CE05376374A937F374A56
:105920009376354AD37F354AD376334A203212787C
:10593000009200222E4B9A602C4A127808239A4338
:105940002A4B1A701A46127810239A43274B1A7062
:105950000022274BDA6001225A7400221A74234A6B
:10596000127802239A43214B1A700022204BDA70DE
:105970001F4A9268521C1E4B9A604B23DB009A42CE
:1059800024D31A461A4B9A60184A127808239A436D
:105990000832164B1A70164AD268521C144BDA6041
:1059A0004B231B019A420DD31A46114BDA600F4A62
:1059B000127810239A4310320C4B1A7000230F4AAE
:1059C0004032137602220A4B1A700EE0074A127810
:1059D00008239A43054B1A701A46127810239A43EB
:1059E000024B1A700022024BDA6008BD4100002011
:1059F00028070020C0070020E2070020AC0A002092
:105A000010B5DD23F44C2370012363700023A370D1
:105A1000F24B1B78DB06DB0F002B02D00323E37075
:105A200003E0EF4BDB78EC4CE370ED4BDB78052BC0
:105A30003DD10B23E84C2371022363710023A37132
:105A4000E37123726372A372E37223736373A373AC
:105A5000E34B597B2346D973082904D10124DF4B3A
:105A600040331C761FE0042904D10224DB4B403371
:105A70001C7618E0022904D10324D84B40331C764D
:105A800011E001290BD10424D44B40331C76D54BB3
:105A90009B78592B07D12023D24C637003E000245C
:105AA000CE4B40331C761123CF4CA3704EE1CB4B31
:105AB0001B78DB06DB0F002B14D00B23C64C2371A5
:105AC000022363710023A371E37123726372A372D3
:105AD000E37223736373A3738023E3731123C24CB4
